:10060000F50A00E066FA86543F01650675FF610051
:100610008010A619F0556000A70EF05591501624D1
:1006200071011610620026808020A631F0558040AE
:10063000A70EF0559250163C720116266A006B0008
:1006400062008020A649F055A70EF065670A880071
:10065000690088754F00165C79011652780AF929ED
:10066000DAB57A04F829DAB57A0C3A4016726A00DB
:100670007B08925016007201164200000000000034
:10068000875077016300C4FF61D881444F0116860B
:1006900074018030A699F055A70FF065904016863A
:1006A000937000EE7301169207020306030702021D
:0A06B00007070707030207070B0FF7
:00000001FF
