:10060000A7006A1F6B10DAB369006D146C00A704B1
:1006100061006200D1266718A7006307E3A12642A4
:100620006306E3A126486301E3A1264E6309E3A123
:1006300026546305E3A1265C26B6471816D0163665
:100640001642DAB37A021658DAB37AFE1658DAB3DB
:100650007BFE1658DAB37B02DAB300EEA703471825
:100660002676D56177FE4F012680D5617503370068
:1006700000EE671800EE85A086B076017DFF00EEE3
:100680006C066E02FE186E03FE15FE073E00168A0B
:100690007CFF3C00168279026718A704D126C305A7
:1006A0008934F31EF065C3EE8032F0557108A7045B
:1006B000D126A70300EEA704C302C401D1268134CA
:1006C0008244D1263F0100EE6E0AFE187DFF00EE47
:1006D0003D001618A713F933F26500E06A186B0A9B
:1006E000F029DAB57A06F129DAB57A06F229DAB50F
:1006F000A70CF565A704F55516F8000000000000EA
:10070000C020C010C366181866C30000C36618185E
:0307100066C300BD
:00000001FF
