:100600006008A6196100D0116120D011700830383F
:1006100016046000A6F4D01171FF31FF1616A6F380
:10062000FC65A6F3D89326D626C8FA006302CD1E31
:100630007D01A6F4D3D1D3D1330116406601FC1855
:100640003D0116486701FC183D1F165067FFFC1856
:10065000332A167880909D00166870019D001668F8
:1006600070019D001668167826D6740126D666FF9E
:100670003A0A7AFFFC18FA003330169226C875FF42
:1006800045FF168826C8162C6008E09E168A00E0F2
:100690001600A6F483648D74D3D1A6F36105E19EA0
:1006A00016AC490116ACD89379FED893610DE19E42
:1006B00016BC491D16BCD8937902D893A6F46009DC
:1006C000700190A0163616C0A6F0F533F265F22937
:1006D000602BD0B500EEA6F0F433F265F02960107F
:1006E000D0B5F1297004D0B5F2297004D0B500EE70
:1006F00000000001010102000501012B0F1C240173
:0107000000F8
:00000001FF
