:100600006A126B01611062006001A6B4D127F02963
:100610003010DAB571087A0831301624611072088A
:100620006A127B08A700F01E301016368300601097
:10063000F05580301638F05570013011160A6A2ACC
:100640006B196C1062FFC0067002265872FF3200F0
:100650001646F00A2658165284A085B086C030028D
:10066000166A4501166A75F876FC30081676451943
:10067000167675087604300616824412168274F8CF
:1006800076FF3004168E442A168E74087601A70071
:10069000F61EF06581006000A700F61EF055A70069
:1006A000FC1E8010F055F129D455DAB58A408B50E4
:0C06B0008C6000EEFEFEFEFEFEFEFEFE74
:00000001FF
