:10060000690068036A066B0E630A64106E00670077
:100610006120A732DAB56600E6A116B66601E6A14A
:1006200016D6660F3701162C26801630E6A126F660
:10063000A732DAB56F00DAB53F01163E16FE4E015D
:100640002658470126803E01164C16166C39CD19E6
:10065000A736DCD76E011616C207420116644205A2
:1006600016781658A736DCD77D017CFC3C01167441
:100670006E0000EEDCD700EEA736DCD77DFF166AF1
:10068000A744D3416F007301334016926700630A99
:1006900000EED3413F0100EE00E07901A732DAB568
:1006A000A73EDCD56E006700630AF118391416B254
:1006B000780100E01746370116C4A744D34174FF00
:1006C000D34116C674FFA732DAB57BFF6F00DAB5E7
:1006D0003F01161C16FE370116E4A744D3417401EE
:1006E000D34116E67401A732DAB56F007B01DAB5A3
:1006F0003F01162216FEA744D341670100EE00E039
:10070000A73DDAB7F11800E078FF38001604A754C7
:10071000F933F2656A156B0FF029272CF129272C84
:10072000F229272CFA18F10A00E01600DAB57A044B
:1007300000EE38E070E0386CFEAAFE6C3882442887
:10074000002844828000A732DAB56F00630A6E0089
:10075000670000EE000001FF00FF00FF00FF00FF48
:100760000000000000000000000000000000000089
:100770000000000000000000000000000000000079
:100780000000000000000000000000000000000069
:100790000000000000000000000000000000000059
:1007A0000000000000000000000000000000000049
:1007B0000000000000000000000000000000000039
:1007C0000000000000000000000000000000000029
:1007D0000000000000000000000000000000000019
:1007E0000000000000000000000000000000000009
:1007F00000000000000000000000000000000000F9
:00000001FF
